{
  "_format": "hh-sol-artifact-1",
  "contractName": "Models",
  "sourceName": "contracts/Models.sol",
  "abi": [
    {
      "inputs": [
        {
          "internalType": "uint256",
          "name": "_maxNumberOftoken",
          "type": "uint256"
        },
        {
          "internalType": "uint64",
          "name": "_subscriptionId",
          "type": "uint64"
        },
        {
          "internalType": "address",
          "name": "_VRFADDRESS",
          "type": "address"
        },
        {
          "internalType": "bytes32",
          "name": "_keyHash",
          "type": "bytes32"
        }
      ],
      "stateMutability": "nonpayable",
      "type": "constructor"
    },
    {
      "inputs": [],
      "name": "ERC721EnumerableForbiddenBatchMint",
      "type": "error"
    },
    {
      "inputs": [
        {
          "internalType": "address",
          "name": "sender",
          "type": "address"
        },
        {
          "internalType": "uint256",
          "name": "tokenId",
          "type": "uint256"
        },
        {
          "internalType": "address",
          "name": "owner",
          "type": "address"
        }
      ],
      "name": "ERC721IncorrectOwner",
      "type": "error"
    },
    {
      "inputs": [
        {
          "internalType": "address",
          "name": "operator",
          "type": "address"
        },
        {
          "internalType": "uint256",
          "name": "tokenId",
          "type": "uint256"
        }
      ],
      "name": "ERC721InsufficientApproval",
      "type": "error"
    },
    {
      "inputs": [
        {
          "internalType": "address",
          "name": "approver",
          "type": "address"
        }
      ],
      "name": "ERC721InvalidApprover",
      "type": "error"
    },
    {
      "inputs": [
        {
          "internalType": "address",
          "name": "operator",
          "type": "address"
        }
      ],
      "name": "ERC721InvalidOperator",
      "type": "error"
    },
    {
      "inputs": [
        {
          "internalType": "address",
          "name": "owner",
          "type": "address"
        }
      ],
      "name": "ERC721InvalidOwner",
      "type": "error"
    },
    {
      "inputs": [
        {
          "internalType": "address",
          "name": "receiver",
          "type": "address"
        }
      ],
      "name": "ERC721InvalidReceiver",
      "type": "error"
    },
    {
      "inputs": [
        {
          "internalType": "address",
          "name": "sender",
          "type": "address"
        }
      ],
      "name": "ERC721InvalidSender",
      "type": "error"
    },
    {
      "inputs": [
        {
          "internalType": "uint256",
          "name": "tokenId",
          "type": "uint256"
        }
      ],
      "name": "ERC721NonexistentToken",
      "type": "error"
    },
    {
      "inputs": [
        {
          "internalType": "address",
          "name": "owner",
          "type": "address"
        },
        {
          "internalType": "uint256",
          "name": "index",
          "type": "uint256"
        }
      ],
      "name": "ERC721OutOfBoundsIndex",
      "type": "error"
    },
    {
      "inputs": [],
      "name": "IpfsNFT__TransferFailed",
      "type": "error"
    },
    {
      "inputs": [],
      "name": "MAX__NUMBER__OF__ETC__OVER__1",
      "type": "error"
    },
    {
      "inputs": [],
      "name": "NOT__IN__WHITE__LIST",
      "type": "error"
    },
    {
      "inputs": [],
      "name": "OVER__MAX__NUM__OF__BES",
      "type": "error"
    },
    {
      "inputs": [
        {
          "internalType": "address",
          "name": "have",
          "type": "address"
        },
        {
          "internalType": "address",
          "name": "want",
          "type": "address"
        }
      ],
      "name": "OnlyCoordinatorCanFulfill",
      "type": "error"
    },
    {
      "inputs": [
        {
          "internalType": "address",
          "name": "owner",
          "type": "address"
        }
      ],
      "name": "OwnableInvalidOwner",
      "type": "error"
    },
    {
      "inputs": [
        {
          "internalType": "address",
          "name": "account",
          "type": "address"
        }
      ],
      "name": "OwnableUnauthorizedAccount",
      "type": "error"
    },
    {
      "anonymous": false,
      "inputs": [
        {
          "indexed": true,
          "internalType": "address",
          "name": "owner",
          "type": "address"
        },
        {
          "indexed": true,
          "internalType": "address",
          "name": "approved",
          "type": "address"
        },
        {
          "indexed": true,
          "internalType": "uint256",
          "name": "tokenId",
          "type": "uint256"
        }
      ],
      "name": "Approval",
      "type": "event"
    },
    {
      "anonymous": false,
      "inputs": [
        {
          "indexed": true,
          "internalType": "address",
          "name": "owner",
          "type": "address"
        },
        {
          "indexed": true,
          "internalType": "address",
          "name": "operator",
          "type": "address"
        },
        {
          "indexed": false,
          "internalType": "bool",
          "name": "approved",
          "type": "bool"
        }
      ],
      "name": "ApprovalForAll",
      "type": "event"
    },
    {
      "anonymous": false,
      "inputs": [
        {
          "indexed": false,
          "internalType": "uint256",
          "name": "_fromTokenId",
          "type": "uint256"
        },
        {
          "indexed": false,
          "internalType": "uint256",
          "name": "_toTokenId",
          "type": "uint256"
        }
      ],
      "name": "BatchMetadataUpdate",
      "type": "event"
    },
    {
      "anonymous": false,
      "inputs": [
        {
          "indexed": false,
          "internalType": "uint256",
          "name": "_tokenId",
          "type": "uint256"
        }
      ],
      "name": "MetadataUpdate",
      "type": "event"
    },
    {
      "anonymous": false,
      "inputs": [
        {
          "indexed": true,
          "internalType": "uint256",
          "name": "requestId",
          "type": "uint256"
        }
      ],
      "name": "MintRequest",
      "type": "event"
    },
    {
      "anonymous": false,
      "inputs": [
        {
          "indexed": true,
          "internalType": "uint256",
          "name": "requestId",
          "type": "uint256"
        }
      ],
      "name": "MintSuccess",
      "type": "event"
    },
    {
      "anonymous": false,
      "inputs": [
        {
          "indexed": true,
          "internalType": "address",
          "name": "previousOwner",
          "type": "address"
        },
        {
          "indexed": true,
          "internalType": "address",
          "name": "newOwner",
          "type": "address"
        }
      ],
      "name": "OwnershipTransferred",
      "type": "event"
    },
    {
      "anonymous": false,
      "inputs": [
        {
          "indexed": true,
          "internalType": "address",
          "name": "from",
          "type": "address"
        },
        {
          "indexed": true,
          "internalType": "address",
          "name": "to",
          "type": "address"
        },
        {
          "indexed": true,
          "internalType": "uint256",
          "name": "tokenId",
          "type": "uint256"
        }
      ],
      "name": "Transfer",
      "type": "event"
    },
    {
      "inputs": [
        {
          "internalType": "address[]",
          "name": "addresses",
          "type": "address[]"
        }
      ],
      "name": "addWhiteList",
      "outputs": [],
      "stateMutability": "nonpayable",
      "type": "function"
    },
    {
      "inputs": [
        {
          "internalType": "address",
          "name": "to",
          "type": "address"
        },
        {
          "internalType": "uint256",
          "name": "tokenId",
          "type": "uint256"
        }
      ],
      "name": "approve",
      "outputs": [],
      "stateMutability": "nonpayable",
      "type": "function"
    },
    {
      "inputs": [
        {
          "internalType": "address",
          "name": "owner",
          "type": "address"
        }
      ],
      "name": "balanceOf",
      "outputs": [
        {
          "internalType": "uint256",
          "name": "",
          "type": "uint256"
        }
      ],
      "stateMutability": "view",
      "type": "function"
    },
    {
      "inputs": [],
      "name": "callbackGasLimit",
      "outputs": [
        {
          "internalType": "uint32",
          "name": "",
          "type": "uint32"
        }
      ],
      "stateMutability": "view",
      "type": "function"
    },
    {
      "inputs": [
        {
          "internalType": "int256",
          "name": "_degree",
          "type": "int256"
        }
      ],
      "name": "changeERTStatus",
      "outputs": [],
      "stateMutability": "nonpayable",
      "type": "function"
    },
    {
      "inputs": [],
      "name": "currentDegree",
      "outputs": [
        {
          "internalType": "int256",
          "name": "",
          "type": "int256"
        }
      ],
      "stateMutability": "view",
      "type": "function"
    },
    {
      "inputs": [],
      "name": "currentDegreeLevel",
      "outputs": [
        {
          "internalType": "enum Models.DegreeState",
          "name": "",
          "type": "uint8"
        }
      ],
      "stateMutability": "view",
      "type": "function"
    },
    {
      "inputs": [
        {
          "internalType": "uint256",
          "name": "tokenId",
          "type": "uint256"
        }
      ],
      "name": "getApproved",
      "outputs": [
        {
          "internalType": "address",
          "name": "",
          "type": "address"
        }
      ],
      "stateMutability": "view",
      "type": "function"
    },
    {
      "inputs": [],
      "name": "getCurrentDegree",
      "outputs": [
        {
          "internalType": "int256",
          "name": "",
          "type": "int256"
        }
      ],
      "stateMutability": "view",
      "type": "function"
    },
    {
      "inputs": [],
      "name": "getCurrentWindowState",
      "outputs": [
        {
          "internalType": "enum Models.WindowState",
          "name": "",
          "type": "uint8"
        }
      ],
      "stateMutability": "view",
      "type": "function"
    },
    {
      "inputs": [],
      "name": "getMaxNumberOftoken",
      "outputs": [
        {
          "internalType": "uint256",
          "name": "",
          "type": "uint256"
        }
      ],
      "stateMutability": "view",
      "type": "function"
    },
    {
      "inputs": [
        {
          "internalType": "address",
          "name": "owner",
          "type": "address"
        },
        {
          "internalType": "address",
          "name": "operator",
          "type": "address"
        }
      ],
      "name": "isApprovedForAll",
      "outputs": [
        {
          "internalType": "bool",
          "name": "",
          "type": "bool"
        }
      ],
      "stateMutability": "view",
      "type": "function"
    },
    {
      "inputs": [],
      "name": "mint",
      "outputs": [],
      "stateMutability": "payable",
      "type": "function"
    },
    {
      "inputs": [],
      "name": "name",
      "outputs": [
        {
          "internalType": "string",
          "name": "",
          "type": "string"
        }
      ],
      "stateMutability": "view",
      "type": "function"
    },
    {
      "inputs": [],
      "name": "owner",
      "outputs": [
        {
          "internalType": "address",
          "name": "",
          "type": "address"
        }
      ],
      "stateMutability": "view",
      "type": "function"
    },
    {
      "inputs": [
        {
          "internalType": "uint256",
          "name": "tokenId",
          "type": "uint256"
        }
      ],
      "name": "ownerOf",
      "outputs": [
        {
          "internalType": "address",
          "name": "",
          "type": "address"
        }
      ],
      "stateMutability": "view",
      "type": "function"
    },
    {
      "inputs": [],
      "name": "preMint",
      "outputs": [],
      "stateMutability": "payable",
      "type": "function"
    },
    {
      "inputs": [
        {
          "internalType": "uint256",
          "name": "requestId",
          "type": "uint256"
        },
        {
          "internalType": "uint256[]",
          "name": "randomWords",
          "type": "uint256[]"
        }
      ],
      "name": "rawFulfillRandomWords",
      "outputs": [],
      "stateMutability": "nonpayable",
      "type": "function"
    },
    {
      "inputs": [],
      "name": "renounceOwnership",
      "outputs": [],
      "stateMutability": "nonpayable",
      "type": "function"
    },
    {
      "inputs": [
        {
          "internalType": "uint256",
          "name": "",
          "type": "uint256"
        }
      ],
      "name": "resToToken",
      "outputs": [
        {
          "internalType": "uint256",
          "name": "",
          "type": "uint256"
        }
      ],
      "stateMutability": "view",
      "type": "function"
    },
    {
      "inputs": [
        {
          "internalType": "address",
          "name": "from",
          "type": "address"
        },
        {
          "internalType": "address",
          "name": "to",
          "type": "address"
        },
        {
          "internalType": "uint256",
          "name": "tokenId",
          "type": "uint256"
        }
      ],
      "name": "safeTransferFrom",
      "outputs": [],
      "stateMutability": "nonpayable",
      "type": "function"
    },
    {
      "inputs": [
        {
          "internalType": "address",
          "name": "from",
          "type": "address"
        },
        {
          "internalType": "address",
          "name": "to",
          "type": "address"
        },
        {
          "internalType": "uint256",
          "name": "tokenId",
          "type": "uint256"
        },
        {
          "internalType": "bytes",
          "name": "data",
          "type": "bytes"
        }
      ],
      "name": "safeTransferFrom",
      "outputs": [],
      "stateMutability": "nonpayable",
      "type": "function"
    },
    {
      "inputs": [
        {
          "internalType": "address",
          "name": "operator",
          "type": "address"
        },
        {
          "internalType": "bool",
          "name": "approved",
          "type": "bool"
        }
      ],
      "name": "setApprovalForAll",
      "outputs": [],
      "stateMutability": "nonpayable",
      "type": "function"
    },
    {
      "inputs": [
        {
          "internalType": "bytes4",
          "name": "interfaceId",
          "type": "bytes4"
        }
      ],
      "name": "supportsInterface",
      "outputs": [
        {
          "internalType": "bool",
          "name": "",
          "type": "bool"
        }
      ],
      "stateMutability": "view",
      "type": "function"
    },
    {
      "inputs": [],
      "name": "symbol",
      "outputs": [
        {
          "internalType": "string",
          "name": "",
          "type": "string"
        }
      ],
      "stateMutability": "view",
      "type": "function"
    },
    {
      "inputs": [
        {
          "internalType": "uint256",
          "name": "index",
          "type": "uint256"
        }
      ],
      "name": "tokenByIndex",
      "outputs": [
        {
          "internalType": "uint256",
          "name": "",
          "type": "uint256"
        }
      ],
      "stateMutability": "view",
      "type": "function"
    },
    {
      "inputs": [
        {
          "internalType": "address",
          "name": "owner",
          "type": "address"
        },
        {
          "internalType": "uint256",
          "name": "index",
          "type": "uint256"
        }
      ],
      "name": "tokenOfOwnerByIndex",
      "outputs": [
        {
          "internalType": "uint256",
          "name": "",
          "type": "uint256"
        }
      ],
      "stateMutability": "view",
      "type": "function"
    },
    {
      "inputs": [
        {
          "internalType": "uint256",
          "name": "tokenId",
          "type": "uint256"
        }
      ],
      "name": "tokenURI",
      "outputs": [
        {
          "internalType": "string",
          "name": "",
          "type": "string"
        }
      ],
      "stateMutability": "view",
      "type": "function"
    },
    {
      "inputs": [],
      "name": "totalSupply",
      "outputs": [
        {
          "internalType": "uint256",
          "name": "",
          "type": "uint256"
        }
      ],
      "stateMutability": "view",
      "type": "function"
    },
    {
      "inputs": [
        {
          "internalType": "address",
          "name": "from",
          "type": "address"
        },
        {
          "internalType": "address",
          "name": "to",
          "type": "address"
        },
        {
          "internalType": "uint256",
          "name": "tokenId",
          "type": "uint256"
        }
      ],
      "name": "transferFrom",
      "outputs": [],
      "stateMutability": "nonpayable",
      "type": "function"
    },
    {
      "inputs": [
        {
          "internalType": "address",
          "name": "newOwner",
          "type": "address"
        }
      ],
      "name": "transferOwnership",
      "outputs": [],
      "stateMutability": "nonpayable",
      "type": "function"
    },
    {
      "inputs": [],
      "name": "transferWindowState",
      "outputs": [],
      "stateMutability": "nonpayable",
      "type": "function"
    },
    {
      "inputs": [],
      "name": "withdraw",
      "outputs": [],
      "stateMutability": "payable",
      "type": "function"
    }
  ],
  "bytecode": "0x61012060405260146011556000601260006101000a81548160ff0219169083600381111562000033576200003262000869565b5b02179055503480156200004557600080fd5b50604051620054ec380380620054ec83398181016040528101906200006b9190620009bd565b81336040518060400160405280600681526020017f4d4f44454c5300000000000000000000000000000000000000000000000000008152506040518060400160405280600381526020017f4d445300000000000000000000000000000000000000000000000000000000008152508160009081620000ea919062000c9f565b508060019081620000fc919062000c9f565b505050600073ffffffffffffffffffffffffffffffffffffffff168173ffffffffffffffffffffffffffffffffffffffff1603620001745760006040517f1e4fbdf70000000000000000000000000000000000000000000000000000000081526004016200016b919062000d97565b60405180910390fd5b6200018581620007a360201b60201c565b508073ffffffffffffffffffffffffffffffffffffffff1660808173ffffffffffffffffffffffffffffffffffffffff16815250505081600f60016101000a81548173ffffffffffffffffffffffffffffffffffffffff021916908373ffffffffffffffffffffffffffffffffffffffff1602179055508060e081815250508267ffffffffffffffff1660c08167ffffffffffffffff16815250506000600f60006101000a81548160ff0219169083600181111562000249576200024862000869565b5b02179055506203d09063ffffffff166101008163ffffffff16815250508360a081815250506000600c600080815260200190815260200160002090508080600181540180825580915050600190039060005260206000200160006040518060800160405280604c8152602001620052d8604c913990919091509081620002d0919062000c9f565b508080600181540180825580915050600190039060005260206000200160006040518060800160405280604c8152602001620051f4604c9139909190915090816200031c919062000c9f565b508080600181540180825580915050600190039060005260206000200160006040518060800160405280604c81526020016200515c604c91399091909150908162000368919062000c9f565b508080600181540180825580915050600190039060005260206000200160006040518060800160405280604c815260200162005078604c913990919091509081620003b4919062000c9f565b506000600c60006001815260200190815260200160002090508080600181540180825580915050600190039060005260206000200160006040518060800160405280604c815260200162005324604c91399091909150908162000418919062000c9f565b508080600181540180825580915050600190039060005260206000200160006040518060800160405280604c815260200162005408604c91399091909150908162000464919062000c9f565b508080600181540180825580915050600190039060005260206000200160006040518060800160405280604c8152602001620051a8604c913990919091509081620004b0919062000c9f565b508080600181540180825580915050600190039060005260206000200160006040518060800160405280604c81526020016200502c604c913990919091509081620004fc919062000c9f565b506000600c60006002815260200190815260200160002090508080600181540180825580915050600190039060005260206000200160006040518060800160405280604c81526020016200528c604c91399091909150908162000560919062000c9f565b508080600181540180825580915050600190039060005260206000200160006040518060800160405280604c815260200162005370604c913990919091509081620005ac919062000c9f565b508080600181540180825580915050600190039060005260206000200160006040518060800160405280604c815260200162005454604c913990919091509081620005f8919062000c9f565b508080600181540180825580915050600190039060005260206000200160006040518060800160405280604c815260200162005110604c91399091909150908162000644919062000c9f565b506000600c60006003815260200190815260200160002090508080600181540180825580915050600190039060005260206000200160006040518060800160405280604c8152602001620050c4604c913990919091509081620006a8919062000c9f565b508080600181540180825580915050600190039060005260206000200160006040518060800160405280604c8152602001620053bc604c913990919091509081620006f4919062000c9f565b508080600181540180825580915050600190039060005260206000200160006040518060800160405280604c815260200162005240604c91399091909150908162000740919062000c9f565b508080600181540180825580915050600190039060005260206000200160006040518060800160405280604c8152602001620054a0604c9139909190915090816200078c919062000c9f565b506004600d81905550505050505050505062000db4565b6000600b60009054906101000a900473ffffffffffffffffffffffffffffffffffffffff16905081600b60006101000a81548173ffffffffffffffffffffffffffffffffffffffff021916908373ffffffffffffffffffffffffffffffffffffffff1602179055508173ffffffffffffffffffffffffffffffffffffffff168173ffffffffffffffffffffffffffffffffffffffff167f8be0079c531659141344cd1fd0a4f28419497f9722a3daafe3b4186f6b6457e060405160405180910390a35050565b7f4e487b7100000000000000000000000000000000000000000000000000000000600052602160045260246000fd5b600080fd5b6000819050919050565b620008b2816200089d565b8114620008be57600080fd5b50565b600081519050620008d281620008a7565b92915050565b600067ffffffffffffffff82169050919050565b620008f781620008d8565b81146200090357600080fd5b50565b6000815190506200091781620008ec565b92915050565b600073ffffffffffffffffffffffffffffffffffffffff82169050919050565b60006200094a826200091d565b9050919050565b6200095c816200093d565b81146200096857600080fd5b50565b6000815190506200097c8162000951565b92915050565b6000819050919050565b620009978162000982565b8114620009a357600080fd5b50565b600081519050620009b7816200098c565b92915050565b60008060008060808587031215620009da57620009d962000898565b5b6000620009ea87828801620008c1565b9450506020620009fd8782880162000906565b935050604062000a10878288016200096b565b925050606062000a2387828801620009a6565b91505092959194509250565b600081519050919050565b7f4e487b7100000000000000000000000000000000000000000000000000000000600052604160045260246000fd5b7f4e487b7100000000000000000000000000000000000000000000000000000000600052602260045260246000fd5b6000600282049050600182168062000ab157607f821691505b60208210810362000ac75762000ac662000a69565b5b50919050565b60008190508160005260206000209050919050565b60006020601f8301049050919050565b600082821b905092915050565b60006008830262000b317fffffffffffffffffffffffffffffffffffffffffffffffffffffffffffffffff8262000af2565b62000b3d868362000af2565b95508019841693508086168417925050509392505050565b6000819050919050565b600062000b8062000b7a62000b74846200089d565b62000b55565b6200089d565b9050919050565b6000819050919050565b62000b9c8362000b5f565b62000bb462000bab8262000b87565b84845462000aff565b825550505050565b600090565b62000bcb62000bbc565b62000bd881848462000b91565b505050565b5b8181101562000c005762000bf460008262000bc1565b60018101905062000bde565b5050565b601f82111562000c4f5762000c198162000acd565b62000c248462000ae2565b8101602085101562000c34578190505b62000c4c62000c438562000ae2565b83018262000bdd565b50505b505050565b600082821c905092915050565b600062000c746000198460080262000c54565b1980831691505092915050565b600062000c8f838362000c61565b9150826002028217905092915050565b62000caa8262000a2f565b67ffffffffffffffff81111562000cc65762000cc562000a3a565b5b62000cd2825462000a98565b62000cdf82828562000c04565b600060209050601f83116001811462000d17576000841562000d02578287015190505b62000d0e858262000c81565b86555062000d7e565b601f19841662000d278662000acd565b60005b8281101562000d515784890151825560018201915060208501945060208101905062000d2a565b8683101562000d71578489015162000d6d601f89168262000c61565b8355505b6001600288020188555050505b505050505050565b62000d91816200093d565b82525050565b600060208201905062000dae600083018462000d86565b92915050565b60805160a05160c05160e0516101005161421762000e1560003960008181610b9501526117a7015260006117630152600061178401526000818161095b01528181610f1701526114400152600081816109d30152610a2701526142176000f3fe6080604052600436106101ee5760003560e01c806359737ee11161010d578063997dc32e116100a0578063c25c8c9e1161006f578063c25c8c9e1461068a578063c87b56dd146106b5578063e985e9c5146106f2578063f2fde38b1461072f578063f622e7fb14610758576101ee565b8063997dc32e146105d0578063a22cb4651461060d578063ac89d78414610636578063b88d4fde14610661576101ee565b8063715018a6116100dc578063715018a6146105385780637db0b1ff1461054f5780638da5cb5b1461057a57806395d89b41146105a5576101ee565b806359737ee11461046c5780635e1045ec146104955780636352211e146104be57806370a08231146104fb576101ee565b806324f74697116101855780633ccfd60b116101545780633ccfd60b146103f25780633cd29ac8146103fc57806342842e0e146104065780634f6ccce71461042f576101ee565b806324f74697146103485780632f745c59146103735780632fa5cee6146103b057806332871022146103db576101ee565b80631249c58b116101c15780631249c58b146102c157806318160ddd146102cb5780631fe543e3146102f657806323b872dd1461031f576101ee565b806301ffc9a7146101f357806306fdde0314610230578063081812fc1461025b578063095ea7b314610298575b600080fd5b3480156101ff57600080fd5b5061021a60048036038101906102159190613010565b610783565b6040516102279190613058565b60405180910390f35b34801561023c57600080fd5b50610245610795565b6040516102529190613103565b60405180910390f35b34801561026757600080fd5b50610282600480360381019061027d919061315b565b610827565b60405161028f91906131c9565b60405180910390f35b3480156102a457600080fd5b506102bf60048036038101906102ba9190613210565b610843565b005b6102c9610859565b005b3480156102d757600080fd5b506102e06109c4565b6040516102ed919061325f565b60405180910390f35b34801561030257600080fd5b5061031d600480360381019061031891906133c2565b6109d1565b005b34801561032b57600080fd5b506103466004803603810190610341919061341e565b610a91565b005b34801561035457600080fd5b5061035d610b93565b60405161036a9190613490565b60405180910390f35b34801561037f57600080fd5b5061039a60048036038101906103959190613210565b610bb7565b6040516103a7919061325f565b60405180910390f35b3480156103bc57600080fd5b506103c5610c60565b6040516103d29190613522565b60405180910390f35b3480156103e757600080fd5b506103f0610c73565b005b6103fa610ce4565b005b610404610d92565b005b34801561041257600080fd5b5061042d6004803603810190610428919061341e565b610f80565b005b34801561043b57600080fd5b506104566004803603810190610451919061315b565b610fa0565b604051610463919061325f565b60405180910390f35b34801561047857600080fd5b50610493600480360381019061048e9190613573565b611016565b005b3480156104a157600080fd5b506104bc60048036038101906104b791906135fb565b6111c1565b005b3480156104ca57600080fd5b506104e560048036038101906104e0919061315b565b611268565b6040516104f291906131c9565b60405180910390f35b34801561050757600080fd5b50610522600480360381019061051d9190613648565b61127a565b60405161052f919061325f565b60405180910390f35b34801561054457600080fd5b5061054d611334565b005b34801561055b57600080fd5b50610564611348565b6040516105719190613684565b60405180910390f35b34801561058657600080fd5b5061058f611352565b60405161059c91906131c9565b60405180910390f35b3480156105b157600080fd5b506105ba61137c565b6040516105c79190613103565b60405180910390f35b3480156105dc57600080fd5b506105f760048036038101906105f2919061315b565b61140e565b604051610604919061325f565b60405180910390f35b34801561061957600080fd5b50610634600480360381019061062f91906136cb565b611426565b005b34801561064257600080fd5b5061064b61143c565b604051610658919061325f565b60405180910390f35b34801561066d57600080fd5b50610688600480360381019061068391906137c0565b611464565b005b34801561069657600080fd5b5061069f611481565b6040516106ac919061388b565b60405180910390f35b3480156106c157600080fd5b506106dc60048036038101906106d7919061315b565b611498565b6040516106e99190613103565b60405180910390f35b3480156106fe57600080fd5b50610719600480360381019061071491906138a6565b6114aa565b6040516107269190613058565b60405180910390f35b34801561073b57600080fd5b5061075660048036038101906107519190613648565b61153e565b005b34801561076457600080fd5b5061076d6115c4565b60405161077a9190613684565b60405180910390f35b600061078e826115ca565b9050919050565b6060600080546107a490613915565b80601f01602080910402602001604051908101604052809291908181526020018280546107d090613915565b801561081d5780601f106107f25761010080835404028352916020019161081d565b820191906000526020600020905b81548152906001019060200180831161080057829003601f168201915b5050505050905090565b60006108328261162b565b5061083c826116b3565b9050919050565b61085582826108506116f0565b6116f8565b5050565b60018081111561086c5761086b6134ab565b5b600f60009054906101000a900460ff16600181111561088e5761088d6134ab565b5b146108ce576040517f08c379a00000000000000000000000000000000000000000000000000000000081526004016108c590613992565b60405180910390fd5b6601c6bf526340003414610917576040517f08c379a000000000000000000000000000000000000000000000000000000000815260040161090e90613a24565b60405180910390fd5b60016109223361127a565b10610959576040517f09a6739300000000000000000000000000000000000000000000000000000000815260040160405180910390fd5b7f00000000000000000000000000000000000000000000000000000000000000006109826109c4565b106109b9576040517f913b742100000000000000000000000000000000000000000000000000000000815260040160405180910390fd5b6109c161170a565b50565b6000600880549050905090565b7f000000000000000000000000000000000000000000000000000000000000000073ffffffffffffffffffffffffffffffffffffffff163373ffffffffffffffffffffffffffffffffffffffff1614610a8357337f00000000000000000000000000000000000000000000000000000000000000006040517f1cf993f4000000000000000000000000000000000000000000000000000000008152600401610a7a929190613a44565b60405180910390fd5b610a8d8282611880565b5050565b600073ffffffffffffffffffffffffffffffffffffffff168273ffffffffffffffffffffffffffffffffffffffff1603610b035760006040517f64a0ae92000000000000000000000000000000000000000000000000000000008152600401610afa91906131c9565b60405180910390fd5b6000610b178383610b126116f0565b6119e7565b90508373ffffffffffffffffffffffffffffffffffffffff168173ffffffffffffffffffffffffffffffffffffffff1614610b8d578382826040517f64283d7b000000000000000000000000000000000000000000000000000000008152600401610b8493929190613a6d565b60405180910390fd5b50505050565b7f000000000000000000000000000000000000000000000000000000000000000081565b6000610bc28361127a565b8210610c075782826040517fa57d13dc000000000000000000000000000000000000000000000000000000008152600401610bfe929190613aa4565b60405180910390fd5b600660008473ffffffffffffffffffffffffffffffffffffffff1673ffffffffffffffffffffffffffffffffffffffff168152602001908152602001600020600083815260200190815260200160002054905092915050565b601260009054906101000a900460ff1681565b610c7b6119fc565b60006001811115610c8f57610c8e6134ab565b5b600f60009054906101000a900460ff166001811115610cb157610cb06134ab565b5b03610ce2576001600f60006101000a81548160ff02191690836001811115610cdc57610cdb6134ab565b5b02179055505b565b610cec6119fc565b60003373ffffffffffffffffffffffffffffffffffffffff1647604051610d1290613afe565b60006040518083038185875af1925050503d8060008114610d4f576040519150601f19603f3d011682016040523d82523d6000602084013e610d54565b606091505b5050905080610d8f576040517f65a0789500000000000000000000000000000000000000000000000000000000815260040160405180910390fd5b50565b60006001811115610da657610da56134ab565b5b600f60009054906101000a900460ff166001811115610dc857610dc76134ab565b5b14610e08576040517f08c379a0000000000000000000000000000000000000000000000000000000008152600401610dff90613b5f565b60405180910390fd5b655af3107a40003414610e50576040517f08c379a0000000000000000000000000000000000000000000000000000000008152600401610e4790613bf1565b60405180910390fd5b600e60003373ffffffffffffffffffffffffffffffffffffffff1673ffffffffffffffffffffffffffffffffffffffff16815260200190815260200160002060009054906101000a900460ff16610ed3576040517f404074ce00000000000000000000000000000000000000000000000000000000815260040160405180910390fd5b6001610ede3361127a565b10610f15576040517f09a6739300000000000000000000000000000000000000000000000000000000815260040160405180910390fd5b7f0000000000000000000000000000000000000000000000000000000000000000610f3e6109c4565b10610f75576040517f913b742100000000000000000000000000000000000000000000000000000000815260040160405180910390fd5b610f7d61170a565b50565b610f9b83838360405180602001604052806000815250611464565b505050565b6000610faa6109c4565b8210610ff0576000826040517fa57d13dc000000000000000000000000000000000000000000000000000000008152600401610fe7929190613aa4565b60405180910390fd5b6008828154811061100457611003613c11565b5b90600052602060002001549050919050565b60115481146111be5780601181905550600061103182611a83565b9050601260009054906101000a900460ff166003811115611055576110546134ab565b5b816003811115611068576110676134ab565b5b146111bc5780601260006101000a81548160ff02191690836003811115611092576110916134ab565b5b021790555060006110a16109c4565b905060005b818110156111b9576000601360008381526020019081526020016000205490506111ab82600c6000848152602001908152602001600020601260009054906101000a900460ff1660038111156110ff576110fe6134ab565b5b60ff168154811061111357611112613c11565b5b90600052602060002001805461112890613915565b80601f016020809104026020016040519081016040528092919081815260200182805461115490613915565b80156111a15780601f10611176576101008083540402835291602001916111a1565b820191906000526020600020905b81548152906001019060200180831161118457829003601f168201915b5050505050611ac7565b5080806001019150506110a6565b50505b505b50565b6111c96119fc565b60005b82829050811015611263576001600e60008585858181106111f0576111ef613c11565b5b90506020020160208101906112059190613648565b73ffffffffffffffffffffffffffffffffffffffff1673ffffffffffffffffffffffffffffffffffffffff16815260200190815260200160002060006101000a81548160ff02191690831515021790555080806001019150506111cc565b505050565b60006112738261162b565b9050919050565b60008073ffffffffffffffffffffffffffffffffffffffff168273ffffffffffffffffffffffffffffffffffffffff16036112ed5760006040517f89c62b640000000000000000000000000000000000000000000000000000000081526004016112e491906131c9565b60405180910390fd5b600360008373ffffffffffffffffffffffffffffffffffffffff1673ffffffffffffffffffffffffffffffffffffffff168152602001908152602001600020549050919050565b61133c6119fc565b6113466000611b23565b565b6000601154905090565b6000600b60009054906101000a900473ffffffffffffffffffffffffffffffffffffffff16905090565b60606001805461138b90613915565b80601f01602080910402602001604051908101604052809291908181526020018280546113b790613915565b80156114045780601f106113d957610100808354040283529160200191611404565b820191906000526020600020905b8154815290600101906020018083116113e757829003601f168201915b5050505050905090565b60106020528060005260406000206000915090505481565b6114386114316116f0565b8383611be9565b5050565b60007f0000000000000000000000000000000000000000000000000000000000000000905090565b61146f848484610a91565b61147b84848484611d58565b50505050565b6000600f60009054906101000a900460ff16905090565b60606114a382611f0f565b9050919050565b6000600560008473ffffffffffffffffffffffffffffffffffffffff1673ffffffffffffffffffffffffffffffffffffffff16815260200190815260200160002060008373ffffffffffffffffffffffffffffffffffffffff1673ffffffffffffffffffffffffffffffffffffffff16815260200190815260200160002060009054906101000a900460ff16905092915050565b6115466119fc565b600073ffffffffffffffffffffffffffffffffffffffff168173ffffffffffffffffffffffffffffffffffffffff16036115b85760006040517f1e4fbdf70000000000000000000000000000000000000000000000000000000081526004016115af91906131c9565b60405180910390fd5b6115c181611b23565b50565b60115481565b6000634906490660e01b7bffffffffffffffffffffffffffffffffffffffffffffffffffffffff1916827bffffffffffffffffffffffffffffffffffffffffffffffffffffffff19161480611624575061162382612022565b5b9050919050565b6000806116378361209c565b9050600073ffffffffffffffffffffffffffffffffffffffff168173ffffffffffffffffffffffffffffffffffffffff16036116aa57826040517f7e2732890000000000000000000000000000000000000000000000000000000081526004016116a1919061325f565b60405180910390fd5b80915050919050565b60006004600083815260200190815260200160002060009054906101000a900473ffffffffffffffffffffffffffffffffffffffff169050919050565b600033905090565b61170583838360016120d9565b505050565b600080611717601461229e565b905061172360146122ac565b600f60019054906101000a900473ffffffffffffffffffffffffffffffffffffffff1673ffffffffffffffffffffffffffffffffffffffff16635d3b1d307f00000000000000000000000000000000000000000000000000000000000000007f000000000000000000000000000000000000000000000000000000000000000060037f000000000000000000000000000000000000000000000000000000000000000060016040518663ffffffff1660e01b81526004016117e8959493929190613c99565b6020604051808303816000875af1158015611807573d6000803e3d6000fd5b505050506040513d601f19601f8201168201806040525081019061182b9190613d01565b915061183733826122c2565b806010600084815260200190815260200160002081905550817f7b0e05fbeb1edccdd44bd586d531628f90b83bc34de187a0b063ef548a779ac060405160405180910390a25090565b6000600d548260008151811061189957611898613c11565b5b60200260200101516118ab9190613d5d565b90506000601060008581526020019081526020016000205490508160136000838152602001908152602001600020819055506119b481600c600085815260200190815260200160002060006003811115611908576119076134ab565b5b60ff168154811061191c5761191b613c11565b5b90600052602060002001805461193190613915565b80601f016020809104026020016040519081016040528092919081815260200182805461195d90613915565b80156119aa5780601f1061197f576101008083540402835291602001916119aa565b820191906000526020600020905b81548152906001019060200180831161198d57829003601f168201915b5050505050611ac7565b837fdd779ccd34929e417fc56a3ffb2acea0e3ce9ff756ef2107f4a75b6b00132aeb60405160405180910390a250505050565b60006119f48484846122e0565b509392505050565b611a046116f0565b73ffffffffffffffffffffffffffffffffffffffff16611a22611352565b73ffffffffffffffffffffffffffffffffffffffff1614611a8157611a456116f0565b6040517f118cdaa7000000000000000000000000000000000000000000000000000000008152600401611a7891906131c9565b60405180910390fd5b565b6000610bb88212611a975760019050611ac2565b6105dc821315611aaa5760009050611ac2565b6101f4821315611abd5760029050611ac2565b600390505b919050565b80600a60008481526020019081526020016000209081611ae79190613f3a565b507ff8e1a15aba9398e019f0b49df1a4fde98ee17ae345cb5f6b5e2c27f5033e8ce782604051611b17919061325f565b60405180910390a15050565b6000600b60009054906101000a900473ffffffffffffffffffffffffffffffffffffffff16905081600b60006101000a81548173ffffffffffffffffffffffffffffffffffffffff021916908373ffffffffffffffffffffffffffffffffffffffff1602179055508173ffffffffffffffffffffffffffffffffffffffff168173ffffffffffffffffffffffffffffffffffffffff167f8be0079c531659141344cd1fd0a4f28419497f9722a3daafe3b4186f6b6457e060405160405180910390a35050565b600073ffffffffffffffffffffffffffffffffffffffff168273ffffffffffffffffffffffffffffffffffffffff1603611c5a57816040517f5b08ba18000000000000000000000000000000000000000000000000000000008152600401611c5191906131c9565b60405180910390fd5b80600560008573ffffffffffffffffffffffffffffffffffffffff1673ffffffffffffffffffffffffffffffffffffffff16815260200190815260200160002060008473ffffffffffffffffffffffffffffffffffffffff1673ffffffffffffffffffffffffffffffffffffffff16815260200190815260200160002060006101000a81548160ff0219169083151502179055508173ffffffffffffffffffffffffffffffffffffffff168373ffffffffffffffffffffffffffffffffffffffff167f17307eab39ab6107e8899845ad3d59bd9653f200f220920489ca2b5937696c3183604051611d4b9190613058565b60405180910390a3505050565b60008373ffffffffffffffffffffffffffffffffffffffff163b1115611f09578273ffffffffffffffffffffffffffffffffffffffff1663150b7a02611d9c6116f0565b8685856040518563ffffffff1660e01b8152600401611dbe9493929190614061565b6020604051808303816000875af1925050508015611dfa57506040513d601f19601f82011682018060405250810190611df791906140c2565b60015b611e7e573d8060008114611e2a576040519150601f19603f3d011682016040523d82523d6000602084013e611e2f565b606091505b506000815103611e7657836040517f64a0ae92000000000000000000000000000000000000000000000000000000008152600401611e6d91906131c9565b60405180910390fd5b805181602001fd5b63150b7a0260e01b7bffffffffffffffffffffffffffffffffffffffffffffffffffffffff1916817bffffffffffffffffffffffffffffffffffffffffffffffffffffffff191614611f0757836040517f64a0ae92000000000000000000000000000000000000000000000000000000008152600401611efe91906131c9565b60405180910390fd5b505b50505050565b6060611f1a8261162b565b506000600a60008481526020019081526020016000208054611f3b90613915565b80601f0160208091040260200160405190810160405280929190818152602001828054611f6790613915565b8015611fb45780601f10611f8957610100808354040283529160200191611fb4565b820191906000526020600020905b815481529060010190602001808311611f9757829003601f168201915b505050505090506000611fc56123fd565b90506000815103611fda57819250505061201d565b60008251111561200f578082604051602001611ff792919061412b565b6040516020818303038152906040529250505061201d565b61201884612414565b925050505b919050565b60007f780e9d63000000000000000000000000000000000000000000000000000000007bffffffffffffffffffffffffffffffffffffffffffffffffffffffff1916827bffffffffffffffffffffffffffffffffffffffffffffffffffffffff1916148061209557506120948261247d565b5b9050919050565b60006002600083815260200190815260200160002060009054906101000a900473ffffffffffffffffffffffffffffffffffffffff169050919050565b80806121125750600073ffffffffffffffffffffffffffffffffffffffff168273ffffffffffffffffffffffffffffffffffffffff1614155b156122465760006121228461162b565b9050600073ffffffffffffffffffffffffffffffffffffffff168373ffffffffffffffffffffffffffffffffffffffff161415801561218d57508273ffffffffffffffffffffffffffffffffffffffff168173ffffffffffffffffffffffffffffffffffffffff1614155b80156121a0575061219e81846114aa565b155b156121e257826040517fa9fbf51f0000000000000000000000000000000000000000000000000000000081526004016121d991906131c9565b60405180910390fd5b811561224457838573ffffffffffffffffffffffffffffffffffffffff168273ffffffffffffffffffffffffffffffffffffffff167f8c5be1e5ebec7d5bd14f71427d1e84f3dd0314c0f7b2291e5b200ac8c7c3b92560405160405180910390a45b505b836004600085815260200190815260200160002060006101000a81548173ffffffffffffffffffffffffffffffffffffffff021916908373ffffffffffffffffffffffffffffffffffffffff16021790555050505050565b600081600001549050919050565b6001816000016000828254019250508190555050565b6122dc82826040518060200160405280600081525061255f565b5050565b6000806122ee85858561257b565b9050600073ffffffffffffffffffffffffffffffffffffffff168173ffffffffffffffffffffffffffffffffffffffff16036123325761232d84612795565b612371565b8473ffffffffffffffffffffffffffffffffffffffff168173ffffffffffffffffffffffffffffffffffffffff16146123705761236f81856127de565b5b5b600073ffffffffffffffffffffffffffffffffffffffff168573ffffffffffffffffffffffffffffffffffffffff16036123b3576123ae8461293f565b6123f2565b8473ffffffffffffffffffffffffffffffffffffffff168173ffffffffffffffffffffffffffffffffffffffff16146123f1576123f08585612a10565b5b5b809150509392505050565b606060405180602001604052806000815250905090565b606061241f8261162b565b50600061242a6123fd565b9050600081511161244a5760405180602001604052806000815250612475565b8061245484612a9b565b60405160200161246592919061412b565b6040516020818303038152906040525b915050919050565b60007f80ac58cd000000000000000000000000000000000000000000000000000000007bffffffffffffffffffffffffffffffffffffffffffffffffffffffff1916827bffffffffffffffffffffffffffffffffffffffffffffffffffffffff1916148061254857507f5b5e139f000000000000000000000000000000000000000000000000000000007bffffffffffffffffffffffffffffffffffffffffffffffffffffffff1916827bffffffffffffffffffffffffffffffffffffffffffffffffffffffff1916145b80612558575061255782612b69565b5b9050919050565b6125698383612bd3565b6125766000848484611d58565b505050565b6000806125878461209c565b9050600073ffffffffffffffffffffffffffffffffffffffff168373ffffffffffffffffffffffffffffffffffffffff16146125c9576125c8818486612ccc565b5b600073ffffffffffffffffffffffffffffffffffffffff168173ffffffffffffffffffffffffffffffffffffffff161461265a5761260b6000856000806120d9565b6001600360008373ffffffffffffffffffffffffffffffffffffffff1673ffffffffffffffffffffffffffffffffffffffff168152602001908152602001600020600082825403925050819055505b600073ffffffffffffffffffffffffffffffffffffffff168573ffffffffffffffffffffffffffffffffffffffff16146126dd576001600360008773ffffffffffffffffffffffffffffffffffffffff1673ffffffffffffffffffffffffffffffffffffffff168152602001908152602001600020600082825401925050819055505b846002600086815260200190815260200160002060006101000a81548173ffffffffffffffffffffffffffffffffffffffff021916908373ffffffffffffffffffffffffffffffffffffffff160217905550838573ffffffffffffffffffffffffffffffffffffffff168273ffffffffffffffffffffffffffffffffffffffff167fddf252ad1be2c89b69c2b068fc378daa952ba7f163c4a11628f55a4df523b3ef60405160405180910390a4809150509392505050565b6008805490506009600083815260200190815260200160002081905550600881908060018154018082558091505060019003906000526020600020016000909190919091505550565b60006127e98361127a565b90506000600760008481526020019081526020016000205490508181146128ce576000600660008673ffffffffffffffffffffffffffffffffffffffff1673ffffffffffffffffffffffffffffffffffffffff168152602001908152602001600020600084815260200190815260200160002054905080600660008773ffffffffffffffffffffffffffffffffffffffff1673ffffffffffffffffffffffffffffffffffffffff168152602001908152602001600020600084815260200190815260200160002081905550816007600083815260200190815260200160002081905550505b6007600084815260200190815260200160002060009055600660008573ffffffffffffffffffffffffffffffffffffffff1673ffffffffffffffffffffffffffffffffffffffff16815260200190815260200160002060008381526020019081526020016000206000905550505050565b60006001600880549050612953919061417e565b905060006009600084815260200190815260200160002054905060006008838154811061298357612982613c11565b5b9060005260206000200154905080600883815481106129a5576129a4613c11565b5b9060005260206000200181905550816009600083815260200190815260200160002081905550600960008581526020019081526020016000206000905560088054806129f4576129f36141b2565b5b6001900381819060005260206000200160009055905550505050565b60006001612a1d8461127a565b612a27919061417e565b905081600660008573ffffffffffffffffffffffffffffffffffffffff1673ffffffffffffffffffffffffffffffffffffffff168152602001908152602001600020600083815260200190815260200160002081905550806007600084815260200190815260200160002081905550505050565b606060006001612aaa84612d90565b01905060008167ffffffffffffffff811115612ac957612ac861327f565b5b6040519080825280601f01601f191660200182016040528015612afb5781602001600182028036833780820191505090505b509050600082602001820190505b600115612b5e578080600190039150507f3031323334353637383961626364656600000000000000000000000000000000600a86061a8153600a8581612b5257612b51613d2e565b5b04945060008503612b09575b819350505050919050565b60007f01ffc9a7000000000000000000000000000000000000000000000000000000007bffffffffffffffffffffffffffffffffffffffffffffffffffffffff1916827bffffffffffffffffffffffffffffffffffffffffffffffffffffffff1916149050919050565b600073ffffffffffffffffffffffffffffffffffffffff168273ffffffffffffffffffffffffffffffffffffffff1603612c455760006040517f64a0ae92000000000000000000000000000000000000000000000000000000008152600401612c3c91906131c9565b60405180910390fd5b6000612c53838360006119e7565b9050600073ffffffffffffffffffffffffffffffffffffffff168173ffffffffffffffffffffffffffffffffffffffff1614612cc75760006040517f73c6ac6e000000000000000000000000000000000000000000000000000000008152600401612cbe91906131c9565b60405180910390fd5b505050565b612cd7838383612ee3565b612d8b57600073ffffffffffffffffffffffffffffffffffffffff168373ffffffffffffffffffffffffffffffffffffffff1603612d4c57806040517f7e273289000000000000000000000000000000000000000000000000000000008152600401612d43919061325f565b60405180910390fd5b81816040517f177e802f000000000000000000000000000000000000000000000000000000008152600401612d82929190613aa4565b60405180910390fd5b505050565b600080600090507a184f03e93ff9f4daa797ed6e38ed64bf6a1f0100000000000000008310612dee577a184f03e93ff9f4daa797ed6e38ed64bf6a1f0100000000000000008381612de457612de3613d2e565b5b0492506040810190505b6d04ee2d6d415b85acef81000000008310612e2b576d04ee2d6d415b85acef81000000008381612e2157612e20613d2e565b5b0492506020810190505b662386f26fc100008310612e5a57662386f26fc100008381612e5057612e4f613d2e565b5b0492506010810190505b6305f5e1008310612e83576305f5e1008381612e7957612e78613d2e565b5b0492506008810190505b6127108310612ea8576127108381612e9e57612e9d613d2e565b5b0492506004810190505b60648310612ecb5760648381612ec157612ec0613d2e565b5b0492506002810190505b600a8310612eda576001810190505b80915050919050565b60008073ffffffffffffffffffffffffffffffffffffffff168373ffffffffffffffffffffffffffffffffffffffff1614158015612f9b57508273ffffffffffffffffffffffffffffffffffffffff168473ffffffffffffffffffffffffffffffffffffffff161480612f5c5750612f5b84846114aa565b5b80612f9a57508273ffffffffffffffffffffffffffffffffffffffff16612f82836116b3565b73ffffffffffffffffffffffffffffffffffffffff16145b5b90509392505050565b6000604051905090565b600080fd5b600080fd5b60007fffffffff0000000000000000000000000000000000000000000000000000000082169050919050565b612fed81612fb8565b8114612ff857600080fd5b50565b60008135905061300a81612fe4565b92915050565b60006020828403121561302657613025612fae565b5b600061303484828501612ffb565b91505092915050565b60008115159050919050565b6130528161303d565b82525050565b600060208201905061306d6000830184613049565b92915050565b600081519050919050565b600082825260208201905092915050565b60005b838110156130ad578082015181840152602081019050613092565b60008484015250505050565b6000601f19601f8301169050919050565b60006130d582613073565b6130df818561307e565b93506130ef81856020860161308f565b6130f8816130b9565b840191505092915050565b6000602082019050818103600083015261311d81846130ca565b905092915050565b6000819050919050565b61313881613125565b811461314357600080fd5b50565b6000813590506131558161312f565b92915050565b60006020828403121561317157613170612fae565b5b600061317f84828501613146565b91505092915050565b600073ffffffffffffffffffffffffffffffffffffffff82169050919050565b60006131b382613188565b9050919050565b6131c3816131a8565b82525050565b60006020820190506131de60008301846131ba565b92915050565b6131ed816131a8565b81146131f857600080fd5b50565b60008135905061320a816131e4565b92915050565b6000806040838503121561322757613226612fae565b5b6000613235858286016131fb565b925050602061324685828601613146565b9150509250929050565b61325981613125565b82525050565b60006020820190506132746000830184613250565b92915050565b600080fd5b7f4e487b7100000000000000000000000000000000000000000000000000000000600052604160045260246000fd5b6132b7826130b9565b810181811067ffffffffffffffff821117156132d6576132d561327f565b5b80604052505050565b60006132e9612fa4565b90506132f582826132ae565b919050565b600067ffffffffffffffff8211156133155761331461327f565b5b602082029050602081019050919050565b600080fd5b600061333e613339846132fa565b6132df565b9050808382526020820190506020840283018581111561336157613360613326565b5b835b8181101561338a57806133768882613146565b845260208401935050602081019050613363565b5050509392505050565b600082601f8301126133a9576133a861327a565b5b81356133b984826020860161332b565b91505092915050565b600080604083850312156133d9576133d8612fae565b5b60006133e785828601613146565b925050602083013567ffffffffffffffff81111561340857613407612fb3565b5b61341485828601613394565b9150509250929050565b60008060006060848603121561343757613436612fae565b5b6000613445868287016131fb565b9350506020613456868287016131fb565b925050604061346786828701613146565b9150509250925092565b600063ffffffff82169050919050565b61348a81613471565b82525050565b60006020820190506134a56000830184613481565b92915050565b7f4e487b7100000000000000000000000000000000000000000000000000000000600052602160045260246000fd5b600481106134eb576134ea6134ab565b5b50565b60008190506134fc826134da565b919050565b600061350c826134ee565b9050919050565b61351c81613501565b82525050565b60006020820190506135376000830184613513565b92915050565b6000819050919050565b6135508161353d565b811461355b57600080fd5b50565b60008135905061356d81613547565b92915050565b60006020828403121561358957613588612fae565b5b60006135978482850161355e565b91505092915050565b600080fd5b60008083601f8401126135bb576135ba61327a565b5b8235905067ffffffffffffffff8111156135d8576135d76135a0565b5b6020830191508360208202830111156135f4576135f3613326565b5b9250929050565b6000806020838503121561361257613611612fae565b5b600083013567ffffffffffffffff8111156136305761362f612fb3565b5b61363c858286016135a5565b92509250509250929050565b60006020828403121561365e5761365d612fae565b5b600061366c848285016131fb565b91505092915050565b61367e8161353d565b82525050565b60006020820190506136996000830184613675565b92915050565b6136a88161303d565b81146136b357600080fd5b50565b6000813590506136c58161369f565b92915050565b600080604083850312156136e2576136e1612fae565b5b60006136f0858286016131fb565b9250506020613701858286016136b6565b9150509250929050565b600080fd5b600067ffffffffffffffff82111561372b5761372a61327f565b5b613734826130b9565b9050602081019050919050565b82818337600083830152505050565b600061376361375e84613710565b6132df565b90508281526020810184848401111561377f5761377e61370b565b5b61378a848285613741565b509392505050565b600082601f8301126137a7576137a661327a565b5b81356137b7848260208601613750565b91505092915050565b600080600080608085870312156137da576137d9612fae565b5b60006137e8878288016131fb565b94505060206137f9878288016131fb565b935050604061380a87828801613146565b925050606085013567ffffffffffffffff81111561382b5761382a612fb3565b5b61383787828801613792565b91505092959194509250565b60028110613854576138536134ab565b5b50565b600081905061386582613843565b919050565b600061387582613857565b9050919050565b6138858161386a565b82525050565b60006020820190506138a0600083018461387c565b92915050565b600080604083850312156138bd576138bc612fae565b5b60006138cb858286016131fb565b92505060206138dc858286016131fb565b9150509250929050565b7f4e487b7100000000000000000000000000000000000000000000000000000000600052602260045260246000fd5b6000600282049050600182168061392d57607f821691505b6020821081036139405761393f6138e6565b5b50919050565b7f4d696e7420686173206e6f74206f70656e656420796574210000000000000000600082015250565b600061397c60188361307e565b915061398782613946565b602082019050919050565b600060208201905081810360008301526139ab8161396f565b9050919050565b7f20546865207072696365206f662065616368204d445320697320302e3030303560008201527f2065746865722e00000000000000000000000000000000000000000000000000602082015250565b6000613a0e60278361307e565b9150613a19826139b2565b604082019050919050565b60006020820190508181036000830152613a3d81613a01565b9050919050565b6000604082019050613a5960008301856131ba565b613a6660208301846131ba565b9392505050565b6000606082019050613a8260008301866131ba565b613a8f6020830185613250565b613a9c60408301846131ba565b949350505050565b6000604082019050613ab960008301856131ba565b613ac66020830184613250565b9392505050565b600081905092915050565b50565b6000613ae8600083613acd565b9150613af382613ad8565b600082019050919050565b6000613b0982613adb565b9150819050919050565b7f5072654d696e7420686173206e6f74206f70656e656420796574210000000000600082015250565b6000613b49601b8361307e565b9150613b5482613b13565b602082019050919050565b60006020820190508181036000830152613b7881613b3c565b9050919050565b7f20546865207072696365206f662065616368204d445320697320302e3030303160008201527f2065746865722e00000000000000000000000000000000000000000000000000602082015250565b6000613bdb60278361307e565b9150613be682613b7f565b604082019050919050565b60006020820190508181036000830152613c0a81613bce565b9050919050565b7f4e487b7100000000000000000000000000000000000000000000000000000000600052603260045260246000fd5b6000819050919050565b613c5381613c40565b82525050565b600067ffffffffffffffff82169050919050565b613c7681613c59565b82525050565b600061ffff82169050919050565b613c9381613c7c565b82525050565b600060a082019050613cae6000830188613c4a565b613cbb6020830187613c6d565b613cc86040830186613c8a565b613cd56060830185613481565b613ce26080830184613481565b9695505050505050565b600081519050613cfb8161312f565b92915050565b600060208284031215613d1757613d16612fae565b5b6000613d2584828501613cec565b91505092915050565b7f4e487b7100000000000000000000000000000000000000000000000000000000600052601260045260246000fd5b6000613d6882613125565b9150613d7383613125565b925082613d8357613d82613d2e565b5b828206905092915050565b60008190508160005260206000209050919050565b60006020601f8301049050919050565b600082821b905092915050565b600060088302613df07fffffffffffffffffffffffffffffffffffffffffffffffffffffffffffffffff82613db3565b613dfa8683613db3565b95508019841693508086168417925050509392505050565b6000819050919050565b6000613e37613e32613e2d84613125565b613e12565b613125565b9050919050565b6000819050919050565b613e5183613e1c565b613e65613e5d82613e3e565b848454613dc0565b825550505050565b600090565b613e7a613e6d565b613e85818484613e48565b505050565b5b81811015613ea957613e9e600082613e72565b600181019050613e8b565b5050565b601f821115613eee57613ebf81613d8e565b613ec884613da3565b81016020851015613ed7578190505b613eeb613ee385613da3565b830182613e8a565b50505b505050565b600082821c905092915050565b6000613f1160001984600802613ef3565b1980831691505092915050565b6000613f2a8383613f00565b9150826002028217905092915050565b613f4382613073565b67ffffffffffffffff811115613f5c57613f5b61327f565b5b613f668254613915565b613f71828285613ead565b600060209050601f831160018114613fa45760008415613f92578287015190505b613f9c8582613f1e565b865550614004565b601f198416613fb286613d8e565b60005b82811015613fda57848901518255600182019150602085019450602081019050613fb5565b86831015613ff75784890151613ff3601f891682613f00565b8355505b6001600288020188555050505b505050505050565b600081519050919050565b600082825260208201905092915050565b60006140338261400c565b61403d8185614017565b935061404d81856020860161308f565b614056816130b9565b840191505092915050565b600060808201905061407660008301876131ba565b61408360208301866131ba565b6140906040830185613250565b81810360608301526140a28184614028565b905095945050505050565b6000815190506140bc81612fe4565b92915050565b6000602082840312156140d8576140d7612fae565b5b60006140e6848285016140ad565b91505092915050565b600081905092915050565b600061410582613073565b61410f81856140ef565b935061411f81856020860161308f565b80840191505092915050565b600061413782856140fa565b915061414382846140fa565b91508190509392505050565b7f4e487b7100000000000000000000000000000000000000000000000000000000600052601160045260246000fd5b600061418982613125565b915061419483613125565b92508282039050818111156141ac576141ab61414f565b5b92915050565b7f4e487b7100000000000000000000000000000000000000000000000000000000600052603160045260246000fdfea2646970667358221220562c774a00df5fbc5482deb695c67f325a6feb34f31e40e1601bc9a6f67c548064736f6c6343000818003368747470733a2f2f697066732e66696c65626173652e696f2f697066732f516d626a337a74627651713250416b43637265565a664274313639396344537257775a524e39435643657a66594168747470733a2f2f697066732e66696c65626173652e696f2f697066732f516d61464c36695951324b765946735644456663414b67334170645837476331416d66527a6e756155364359507968747470733a2f2f697066732e66696c65626173652e696f2f697066732f516d664c563677514468386b435a78554d377359684b38426456727a4a32664b374755476670764874587847504168747470733a2f2f697066732e66696c65626173652e696f2f697066732f516d504c6459384d653431363138576861714c69636b707758727a59783576504869656e454c6842624a7439686a68747470733a2f2f697066732e66696c65626173652e696f2f697066732f516d527333664e4770776b5866596b636f6a44725638696e70334e4757415839436a343159313332315a54706f4c68747470733a2f2f697066732e66696c65626173652e696f2f697066732f516d5a4e5a394a685348315a3236734d704d627a43426633567a506f676b444d7475585757533963656235664e7868747470733a2f2f697066732e66696c65626173652e696f2f697066732f516d627333516347614b616f397050737a7a75597173725568454b43366e6831735851725052597070326678334768747470733a2f2f697066732e66696c65626173652e696f2f697066732f516d536e5a543333416b6d4775554579724d66365038716a4656374e376f7562416a53766832426645694856417668747470733a2f2f697066732e66696c65626173652e696f2f697066732f516d56737568536d5235426d75614e436768557658334233393779794b484e6b533550574d4b79436273326d616a68747470733a2f2f697066732e66696c65626173652e696f2f697066732f516d52615953487250794b79764d627457476839574345516b71626752745668337750657a4b7a77426b4d57584c68747470733a2f2f697066732e66696c65626173652e696f2f697066732f516d5633334a6b52526d524a56797835634d4a4d7364686a4c466d68467163654e4e696458515651346e3539634568747470733a2f2f697066732e66696c65626173652e696f2f697066732f516d5834534c7334534157706b3252537444787732396d7a6b4d5a77446b65456a4b46785a714575686f586f397668747470733a2f2f697066732e66696c65626173652e696f2f697066732f516d5952647771466f3370314545445a754a66394d425175464e634e487570397a44373531575141614253534d3168747470733a2f2f697066732e66696c65626173652e696f2f697066732f516d544150415050757a387835754466564159647171755838614b314d6f7a4b6747796a7a59446168334c35737068747470733a2f2f697066732e66696c65626173652e696f2f697066732f516d546833465436735465394b6644567636315a66334a33517939594650346d363955475a64645a3464654b4e6968747470733a2f2f697066732e66696c65626173652e696f2f697066732f516d5942466b54445264686b367148684850455176455254643744414678703566656352654e5878694555557337",
  "linkReferences": {},
  "deployedLinkReferences": {}
}