{
  "_format": "hh-sol-artifact-1",
  "contractName": "WeatherRequestConsumer",
  "sourceName": "contracts/WeatherRequestConsumer.sol",
  "abi": [
    {
      "inputs": [
        {
          "internalType": "string",
          "name": "_jobId",
          "type": "string"
        },
        {
          "internalType": "address",
          "name": "_oracle",
          "type": "address"
        },
        {
          "internalType": "address",
          "name": "linkAddress",
          "type": "address"
        },
        {
          "internalType": "address",
          "name": "modelesAddress",
          "type": "address"
        }
      ],
      "stateMutability": "nonpayable",
      "type": "constructor"
    },
    {
      "anonymous": false,
      "inputs": [
        {
          "indexed": true,
          "internalType": "bytes32",
          "name": "id",
          "type": "bytes32"
        }
      ],
      "name": "ChainlinkCancelled",
      "type": "event"
    },
    {
      "anonymous": false,
      "inputs": [
        {
          "indexed": true,
          "internalType": "bytes32",
          "name": "id",
          "type": "bytes32"
        }
      ],
      "name": "ChainlinkFulfilled",
      "type": "event"
    },
    {
      "anonymous": false,
      "inputs": [
        {
          "indexed": true,
          "internalType": "bytes32",
          "name": "id",
          "type": "bytes32"
        }
      ],
      "name": "ChainlinkRequested",
      "type": "event"
    },
    {
      "anonymous": false,
      "inputs": [
        {
          "indexed": true,
          "internalType": "address",
          "name": "from",
          "type": "address"
        },
        {
          "indexed": true,
          "internalType": "address",
          "name": "to",
          "type": "address"
        }
      ],
      "name": "OwnershipTransferRequested",
      "type": "event"
    },
    {
      "anonymous": false,
      "inputs": [
        {
          "indexed": true,
          "internalType": "address",
          "name": "from",
          "type": "address"
        },
        {
          "indexed": true,
          "internalType": "address",
          "name": "to",
          "type": "address"
        }
      ],
      "name": "OwnershipTransferred",
      "type": "event"
    },
    {
      "anonymous": false,
      "inputs": [
        {
          "indexed": false,
          "internalType": "bytes32",
          "name": "requestId",
          "type": "bytes32"
        },
        {
          "indexed": false,
          "internalType": "int256",
          "name": "degree",
          "type": "int256"
        }
      ],
      "name": "ReceivedFulfillWeather",
      "type": "event"
    },
    {
      "anonymous": false,
      "inputs": [
        {
          "indexed": false,
          "internalType": "bytes32",
          "name": "requestId",
          "type": "bytes32"
        }
      ],
      "name": "RquestWeather",
      "type": "event"
    },
    {
      "inputs": [],
      "name": "acceptOwnership",
      "outputs": [],
      "stateMutability": "nonpayable",
      "type": "function"
    },
    {
      "inputs": [
        {
          "internalType": "address",
          "name": "_user",
          "type": "address"
        }
      ],
      "name": "addRequestedPromision",
      "outputs": [],
      "stateMutability": "nonpayable",
      "type": "function"
    },
    {
      "inputs": [
        {
          "internalType": "bytes32",
          "name": "_requestId",
          "type": "bytes32"
        },
        {
          "internalType": "uint256",
          "name": "_payment",
          "type": "uint256"
        },
        {
          "internalType": "bytes4",
          "name": "_callbackFunctionId",
          "type": "bytes4"
        },
        {
          "internalType": "uint256",
          "name": "_expiration",
          "type": "uint256"
        }
      ],
      "name": "cancelRequest",
      "outputs": [],
      "stateMutability": "nonpayable",
      "type": "function"
    },
    {
      "inputs": [
        {
          "internalType": "string",
          "name": "_url",
          "type": "string"
        }
      ],
      "name": "changeUrlforWeather",
      "outputs": [],
      "stateMutability": "nonpayable",
      "type": "function"
    },
    {
      "inputs": [
        {
          "internalType": "bytes32",
          "name": "_requestId",
          "type": "bytes32"
        },
        {
          "internalType": "int256",
          "name": "_degree",
          "type": "int256"
        }
      ],
      "name": "fulfillWeather",
      "outputs": [],
      "stateMutability": "nonpayable",
      "type": "function"
    },
    {
      "inputs": [],
      "name": "jobId",
      "outputs": [
        {
          "internalType": "string",
          "name": "",
          "type": "string"
        }
      ],
      "stateMutability": "view",
      "type": "function"
    },
    {
      "inputs": [],
      "name": "modeles",
      "outputs": [
        {
          "internalType": "contract Models",
          "name": "",
          "type": "address"
        }
      ],
      "stateMutability": "view",
      "type": "function"
    },
    {
      "inputs": [],
      "name": "operationAddress",
      "outputs": [
        {
          "internalType": "address",
          "name": "",
          "type": "address"
        }
      ],
      "stateMutability": "view",
      "type": "function"
    },
    {
      "inputs": [],
      "name": "owner",
      "outputs": [
        {
          "internalType": "address",
          "name": "",
          "type": "address"
        }
      ],
      "stateMutability": "view",
      "type": "function"
    },
    {
      "inputs": [],
      "name": "requestCurrentWeather",
      "outputs": [],
      "stateMutability": "nonpayable",
      "type": "function"
    },
    {
      "inputs": [
        {
          "internalType": "address",
          "name": "to",
          "type": "address"
        }
      ],
      "name": "transferOwnership",
      "outputs": [],
      "stateMutability": "nonpayable",
      "type": "function"
    },
    {
      "inputs": [],
      "name": "wheatherUrl",
      "outputs": [
        {
          "internalType": "string",
          "name": "",
          "type": "string"
        }
      ],
      "stateMutability": "view",
      "type": "function"
    },
    {
      "inputs": [],
      "name": "withdrawLink",
      "outputs": [],
      "stateMutability": "nonpayable",
      "type": "function"
    }
  ],
  "bytecode": "0x60a060405260016004556040518060800160405280605f815260200162003645605f9139600b9081620000339190620006a7565b503480156200004157600080fd5b50604051620036a4380380620036a4833981810160405281019062000067919062000957565b338060008073ffffffffffffffffffffffffffffffffffffffff168273ffffffffffffffffffffffffffffffffffffffff1603620000dc576040517f08c379a0000000000000000000000000000000000000000000000000000000008152600401620000d39062000a49565b60405180910390fd5b81600660006101000a81548173ffffffffffffffffffffffffffffffffffffffff021916908373ffffffffffffffffffffffffffffffffffffffff160217905550600073ffffffffffffffffffffffffffffffffffffffff168173ffffffffffffffffffffffffffffffffffffffff1614620001645762000163816200027460201b60201c565b5b50505080600960006101000a81548173ffffffffffffffffffffffffffffffffffffffff021916908373ffffffffffffffffffffffffffffffffffffffff1602179055508360089081620001b99190620006a7565b508273ffffffffffffffffffffffffffffffffffffffff1660808173ffffffffffffffffffffffffffffffffffffffff1681525050620001ff82620003a560201b60201c565b62000212608051620003e960201b60201c565b6001600a60003373ffffffffffffffffffffffffffffffffffffffff1673ffffffffffffffffffffffffffffffffffffffff16815260200190815260200160002060006101000a81548160ff0219169083151502179055505050505062000add565b3373ffffffffffffffffffffffffffffffffffffffff168173ffffffffffffffffffffffffffffffffffffffff1603620002e5576040517f08c379a0000000000000000000000000000000000000000000000000000000008152600401620002dc9062000abb565b60405180910390fd5b80600760006101000a81548173ffffffffffffffffffffffffffffffffffffffff021916908373ffffffffffffffffffffffffffffffffffffffff1602179055508073ffffffffffffffffffffffffffffffffffffffff16600660009054906101000a900473ffffffffffffffffffffffffffffffffffffffff1673ffffffffffffffffffffffffffffffffffffffff167fed8889f560326eb138920d842192f0eb3dd22b4f139c87a2c57538e05bae127860405160405180910390a350565b80600260006101000a81548173ffffffffffffffffffffffffffffffffffffffff021916908373ffffffffffffffffffffffffffffffffffffffff16021790555050565b80600360006101000a81548173ffffffffffffffffffffffffffffffffffffffff021916908373ffffffffffffffffffffffffffffffffffffffff16021790555050565b600081519050919050565b7f4e487b7100000000000000000000000000000000000000000000000000000000600052604160045260246000fd5b7f4e487b7100000000000000000000000000000000000000000000000000000000600052602260045260246000fd5b60006002820490506001821680620004af57607f821691505b602082108103620004c557620004c462000467565b5b50919050565b60008190508160005260206000209050919050565b60006020601f8301049050919050565b600082821b905092915050565b6000600883026200052f7fffffffffffffffffffffffffffffffffffffffffffffffffffffffffffffffff82620004f0565b6200053b8683620004f0565b95508019841693508086168417925050509392505050565b6000819050919050565b6000819050919050565b600062000588620005826200057c8462000553565b6200055d565b62000553565b9050919050565b6000819050919050565b620005a48362000567565b620005bc620005b3826200058f565b848454620004fd565b825550505050565b600090565b620005d3620005c4565b620005e081848462000599565b505050565b5b818110156200060857620005fc600082620005c9565b600181019050620005e6565b5050565b601f82111562000657576200062181620004cb565b6200062c84620004e0565b810160208510156200063c578190505b620006546200064b85620004e0565b830182620005e5565b50505b505050565b600082821c905092915050565b60006200067c600019846008026200065c565b1980831691505092915050565b600062000697838362000669565b9150826002028217905092915050565b620006b2826200042d565b67ffffffffffffffff811115620006ce57620006cd62000438565b5b620006da825462000496565b620006e78282856200060c565b600060209050601f8311600181146200071f57600084156200070a578287015190505b62000716858262000689565b86555062000786565b601f1984166200072f86620004cb565b60005b82811015620007595784890151825560018201915060208501945060208101905062000732565b8683101562000779578489015162000775601f89168262000669565b8355505b6001600288020188555050505b505050505050565b6000604051905090565b600080fd5b600080fd5b600080fd5b600080fd5b6000601f19601f8301169050919050565b620007c882620007ac565b810181811067ffffffffffffffff82111715620007ea57620007e962000438565b5b80604052505050565b6000620007ff6200078e565b90506200080d8282620007bd565b919050565b600067ffffffffffffffff82111562000830576200082f62000438565b5b6200083b82620007ac565b9050602081019050919050565b60005b83811015620008685780820151818401526020810190506200084b565b60008484015250505050565b60006200088b620008858462000812565b620007f3565b905082815260208101848484011115620008aa57620008a9620007a7565b5b620008b784828562000848565b509392505050565b600082601f830112620008d757620008d6620007a2565b5b8151620008e984826020860162000874565b91505092915050565b600073ffffffffffffffffffffffffffffffffffffffff82169050919050565b60006200091f82620008f2565b9050919050565b620009318162000912565b81146200093d57600080fd5b50565b600081519050620009518162000926565b92915050565b6000806000806080858703121562000974576200097362000798565b5b600085015167ffffffffffffffff8111156200099557620009946200079d565b5b620009a387828801620008bf565b9450506020620009b68782880162000940565b9350506040620009c98782880162000940565b9250506060620009dc8782880162000940565b91505092959194509250565b600082825260208201905092915050565b7f43616e6e6f7420736574206f776e657220746f207a65726f0000000000000000600082015250565b600062000a31601883620009e8565b915062000a3e82620009f9565b602082019050919050565b6000602082019050818103600083015262000a648162000a22565b9050919050565b7f43616e6e6f74207472616e7366657220746f2073656c66000000000000000000600082015250565b600062000aa3601783620009e8565b915062000ab08262000a6b565b602082019050919050565b6000602082019050818103600083015262000ad68162000a94565b9050919050565b608051612b4562000b0060003960008181610684015261091f0152612b456000f3fe608060405234801561001057600080fd5b50600436106100cf5760003560e01c806396bfff061161008c578063d1f2726e11610066578063d1f2726e146101a2578063ec65d0f8146101be578063f2fde38b146101da578063f59f0eae146101f6576100cf565b806396bfff0614610148578063a441c30214610166578063c2939d9714610184576100cf565b806379ba5097146100d457806382b64541146100de57806387d6bb33146100e85780638da5cb5b146101045780638dc654a214610122578063967a33a21461012c575b600080fd5b6100dc610214565b005b6100e66103ab565b005b61010260048036038101906100fd9190611a38565b610707565b005b61010c61076a565b6040516101199190611a74565b60405180910390f35b61012a610794565b005b61014660048036038101906101419190611af4565b6108e1565b005b6101506108f7565b60405161015d9190611ba0565b60405180910390f35b61016e61091d565b60405161017b9190611a74565b60405180910390f35b61018c610941565b6040516101999190611c4b565b60405180910390f35b6101bc60048036038101906101b79190611cd9565b6109cf565b005b6101d860048036038101906101d39190611da7565b610b9f565b005b6101f460048036038101906101ef9190611a38565b610bb9565b005b6101fe610bcd565b60405161020b9190611c4b565b60405180910390f35b600760009054906101000a900473ffffffffffffffffffffffffffffffffffffffff1673ffffffffffffffffffffffffffffffffffffffff163373ffffffffffffffffffffffffffffffffffffffff16146102a4576040517f08c379a000000000000000000000000000000000000000000000000000000000815260040161029b90611e5a565b60405180910390fd5b6000600660009054906101000a900473ffffffffffffffffffffffffffffffffffffffff16905033600660006101000a81548173ffffffffffffffffffffffffffffffffffffffff021916908373ffffffffffffffffffffffffffffffffffffffff1602179055506000600760006101000a81548173ffffffffffffffffffffffffffffffffffffffff021916908373ffffffffffffffffffffffffffffffffffffffff1602179055503373ffffffffffffffffffffffffffffffffffffffff168173ffffffffffffffffffffffffffffffffffffffff167f8be0079c531659141344cd1fd0a4f28419497f9722a3daafe3b4186f6b6457e060405160405180910390a350565b600a60003373ffffffffffffffffffffffffffffffffffffffff1673ffffffffffffffffffffffffffffffffffffffff16815260200190815260200160002060009054906101000a900460ff16610437576040517f08c379a000000000000000000000000000000000000000000000000000000000815260040161042e90611ec6565b60405180910390fd5b60006104dd6104cf6008805461044c90611f15565b80601f016020809104026020016040519081016040528092919081815260200182805461047890611f15565b80156104c55780601f1061049a576101008083540402835291602001916104c5565b820191906000526020600020905b8154815290600101906020018083116104a857829003601f168201915b5050505050610c5b565b3063d1f2726e60e01b610c84565b90506105b36040518060400160405280600381526020017f6765740000000000000000000000000000000000000000000000000000000000815250600b805461052590611f15565b80601f016020809104026020016040519081016040528092919081815260200182805461055190611f15565b801561059e5780601f106105735761010080835404028352916020019161059e565b820191906000526020600020905b81548152906001019060200180831161058157829003601f168201915b505050505083610cb59092919063ffffffff16565b6106326040518060400160405280600481526020017f70617468000000000000000000000000000000000000000000000000000000008152506040518060400160405280601b81526020017f63757272656e745f776561746865722c74656d7065726174757265000000000081525083610cb59092919063ffffffff16565b61067d6040518060400160405280600581526020017f74696d6573000000000000000000000000000000000000000000000000000000815250606483610ce89092919063ffffffff16565b60006106ca7f000000000000000000000000000000000000000000000000000000000000000083600a670de0b6b3a764000060016106bb9190611f75565b6106c59190611fe6565b610d1b565b90507fac52cd4172ba870c0677dcd0b70869fc2d4a7dff4085e99a7c3a5b424682ea90816040516106fb9190612026565b60405180910390a15050565b61070f610de7565b6001600a60008373ffffffffffffffffffffffffffffffffffffffff1673ffffffffffffffffffffffffffffffffffffffff16815260200190815260200160002060006101000a81548160ff02191690831515021790555050565b6000600660009054906101000a900473ffffffffffffffffffffffffffffffffffffffff16905090565b61079c610de7565b60006107a6610e79565b90508073ffffffffffffffffffffffffffffffffffffffff1663a9059cbb338373ffffffffffffffffffffffffffffffffffffffff166370a08231306040518263ffffffff1660e01b81526004016107fe9190611a74565b602060405180830381865afa15801561081b573d6000803e3d6000fd5b505050506040513d601f19601f8201168201806040525081019061083f9190612056565b6040518363ffffffff1660e01b815260040161085c929190612092565b6020604051808303816000875af115801561087b573d6000803e3d6000fd5b505050506040513d601f19601f8201168201806040525081019061089f91906120f3565b6108de576040517f08c379a00000000000000000000000000000000000000000000000000000000081526004016108d59061216c565b60405180910390fd5b50565b8181600b91826108f2929190612368565b505050565b600960009054906101000a900473ffffffffffffffffffffffffffffffffffffffff1681565b7f000000000000000000000000000000000000000000000000000000000000000081565b6008805461094e90611f15565b80601f016020809104026020016040519081016040528092919081815260200182805461097a90611f15565b80156109c75780601f1061099c576101008083540402835291602001916109c7565b820191906000526020600020905b8154815290600101906020018083116109aa57829003601f168201915b505050505081565b816005600082815260200190815260200160002060009054906101000a900473ffffffffffffffffffffffffffffffffffffffff1673ffffffffffffffffffffffffffffffffffffffff163373ffffffffffffffffffffffffffffffffffffffff1614610a71576040517f08c379a0000000000000000000000000000000000000000000000000000000008152600401610a68906124aa565b60405180910390fd5b6005600082815260200190815260200160002060006101000a81549073ffffffffffffffffffffffffffffffffffffffff0219169055807f7cc135e0cebb02c3480ae5d74d377283180a2601f8f644edf7987b009316c63a60405160405180910390a2600960009054906101000a900473ffffffffffffffffffffffffffffffffffffffff1673ffffffffffffffffffffffffffffffffffffffff166359737ee1836040518263ffffffff1660e01b8152600401610b2f91906124d9565b600060405180830381600087803b158015610b4957600080fd5b505af1158015610b5d573d6000803e3d6000fd5b505050507f1e0cec8ef09770a3b493d5668a180eb80d3725fa3d9c08524329120ea4ba387d8383604051610b929291906124f4565b60405180910390a1505050565b610ba7610de7565b610bb384848484610ea3565b50505050565b610bc1610de7565b610bca81610fb6565b50565b600b8054610bda90611f15565b80601f0160208091040260200160405190810160405280929190818152602001828054610c0690611f15565b8015610c535780601f10610c2857610100808354040283529160200191610c53565b820191906000526020600020905b815481529060010190602001808311610c3657829003601f168201915b505050505081565b6000808290506000815103610c76576000801b915050610c7f565b60208301519150505b919050565b610c8c611949565b610c94611949565b610cab858585846110e4909392919063ffffffff16565b9150509392505050565b610ccc82846080015161119490919063ffffffff16565b610ce381846080015161119490919063ffffffff16565b505050565b610cff82846080015161119490919063ffffffff16565b610d168184608001516111b990919063ffffffff16565b505050565b6000806004549050600181610d30919061251d565b6004819055506000634042994660e01b60008087600001513089604001518760018c6080015160000151604051602401610d719897969594939291906125b5565b604051602081830303815290604052907bffffffffffffffffffffffffffffffffffffffffffffffffffffffff19166020820180517bffffffffffffffffffffffffffffffffffffffffffffffffffffffff83818316178352505050509050610ddc86838684611266565b925050509392505050565b600660009054906101000a900473ffffffffffffffffffffffffffffffffffffffff1673ffffffffffffffffffffffffffffffffffffffff163373ffffffffffffffffffffffffffffffffffffffff1614610e77576040517f08c379a0000000000000000000000000000000000000000000000000000000008152600401610e6e90612686565b60405180910390fd5b565b6000600260009054906101000a900473ffffffffffffffffffffffffffffffffffffffff16905090565b60006005600086815260200190815260200160002060009054906101000a900473ffffffffffffffffffffffffffffffffffffffff1690506005600086815260200190815260200160002060006101000a81549073ffffffffffffffffffffffffffffffffffffffff0219169055847fe1fe3afa0f7f761ff0a8b89086790efd5140d2907ebd5b7ff6bfcb5e075fd4c560405160405180910390a28073ffffffffffffffffffffffffffffffffffffffff16636ee4d553868686866040518563ffffffff1660e01b8152600401610f7d94939291906126a6565b600060405180830381600087803b158015610f9757600080fd5b505af1158015610fab573d6000803e3d6000fd5b505050505050505050565b3373ffffffffffffffffffffffffffffffffffffffff168173ffffffffffffffffffffffffffffffffffffffff1603611024576040517f08c379a000000000000000000000000000000000000000000000000000000000815260040161101b90612737565b60405180910390fd5b80600760006101000a81548173ffffffffffffffffffffffffffffffffffffffff021916908373ffffffffffffffffffffffffffffffffffffffff1602179055508073ffffffffffffffffffffffffffffffffffffffff16600660009054906101000a900473ffffffffffffffffffffffffffffffffffffffff1673ffffffffffffffffffffffffffffffffffffffff167fed8889f560326eb138920d842192f0eb3dd22b4f139c87a2c57538e05bae127860405160405180910390a350565b6110ec611949565b6110fc85608001516101006113fb565b508385600001818152505082856020019073ffffffffffffffffffffffffffffffffffffffff16908173ffffffffffffffffffffffffffffffffffffffff16815250508185604001907bffffffffffffffffffffffffffffffffffffffffffffffffffffffff191690817bffffffffffffffffffffffffffffffffffffffffffffffffffffffff191681525050849050949350505050565b6111a18260038351611465565b6111b481836115ea90919063ffffffff16565b505050565b7fffffffffffffffffffffffffffffffffffffffffffffffff00000000000000008112156111f0576111eb828261160c565b611262565b67ffffffffffffffff81131561120f5761120a8282611683565b611261565b600081126112285761122382600083611465565b611260565b61125f826001837fffffffffffffffffffffffffffffffffffffffffffffffffffffffffffffffff61125a9190612757565b611465565b5b5b5b5050565b6000308460405160200161127b929190612815565b604051602081830303815290604052805190602001209050846005600083815260200190815260200160002060006101000a81548173ffffffffffffffffffffffffffffffffffffffff021916908373ffffffffffffffffffffffffffffffffffffffff160217905550807fb5e6e01e79f91267dc17b4e6314d5d4d03593d2ceee0fbb452b750bd70ea5af960405160405180910390a2600260009054906101000a900473ffffffffffffffffffffffffffffffffffffffff1673ffffffffffffffffffffffffffffffffffffffff16634000aea08685856040518463ffffffff1660e01b815260040161137193929190612841565b6020604051808303816000875af1158015611390573d6000803e3d6000fd5b505050506040513d601f19601f820116820180604052508101906113b491906120f3565b6113f3576040517f08c379a00000000000000000000000000000000000000000000000000000000081526004016113ea906128f1565b60405180910390fd5b949350505050565b6114036119b6565b60006020836114129190612911565b1461143e576020826114249190612911565b60206114309190612942565b8261143b919061251d565b91505b81836020018181525050604051808452600081528281016020016040525082905092915050565b60178167ffffffffffffffff161161149c576114968160058460ff16901b60ff1617846116cf90919063ffffffff16565b506115e5565b60ff8167ffffffffffffffff16116114f2576114cb601860058460ff16901b17846116cf90919063ffffffff16565b506114ec8167ffffffffffffffff166001856116ef9092919063ffffffff16565b506115e4565b61ffff8167ffffffffffffffff161161154957611522601960058460ff16901b17846116cf90919063ffffffff16565b506115438167ffffffffffffffff166002856116ef9092919063ffffffff16565b506115e3565b63ffffffff8167ffffffffffffffff16116115a25761157b601a60058460ff16901b17846116cf90919063ffffffff16565b5061159c8167ffffffffffffffff166004856116ef9092919063ffffffff16565b506115e2565b6115bf601b60058460ff16901b17846116cf90919063ffffffff16565b506115e08167ffffffffffffffff166008856116ef9092919063ffffffff16565b505b5b5b5b505050565b6115f26119b6565b61160483846000015151848551611711565b905092915050565b61162a60036005600660ff16901b17836116cf90919063ffffffff16565b5061167f82827fffffffffffffffffffffffffffffffffffffffffffffffffffffffffffffffff61165b9190612757565b60405160200161166b9190612976565b604051602081830303815290604052611800565b5050565b6116a160026005600660ff16901b17836116cf90919063ffffffff16565b506116cb82826040516020016116b79190612976565b604051602081830303815290604052611800565b5050565b6116d76119b6565b6116e78384600001515184611825565b905092915050565b6116f76119b6565b61170884856000015151858561187b565b90509392505050565b6117196119b6565b825182111561172757600080fd5b84602001518285611738919061251d565b111561176d5761176c85600261175d88602001518887611758919061251d565b611909565b6117679190611f75565b611925565b5b60008086518051876020830101935080888701111561178c5787860182525b60208701925050505b602084106117d357805182526020826117ae919061251d565b91506020816117bd919061251d565b90506020846117cc9190612942565b9350611795565b60006001856020036101000a03905080198251168184511681811785525050508692505050949350505050565b61180d8260028351611465565b61182081836115ea90919063ffffffff16565b505050565b61182d6119b6565b8360200151831061185357611852846002866020015161184d9190611f75565b611925565b5b8351805160208583010184815381860361186e576001820183525b5050508390509392505050565b6118836119b6565b84602001518483611894919061251d565b11156118bc576118bb85600286856118ac919061251d565b6118b69190611f75565b611925565b5b60006001836101006118ce9190612ac4565b6118d89190612942565b905085518386820101858319825116178152815185880111156118fb5784870182525b505085915050949350505050565b60008183111561191b5782905061191f565b8190505b92915050565b60008260000151905061193883836113fb565b5061194383826115ea565b50505050565b6040518060a0016040528060008019168152602001600073ffffffffffffffffffffffffffffffffffffffff16815260200160007bffffffffffffffffffffffffffffffffffffffffffffffffffffffff19168152602001600081526020016119b06119b6565b81525090565b604051806040016040528060608152602001600081525090565b600080fd5b600080fd5b600073ffffffffffffffffffffffffffffffffffffffff82169050919050565b6000611a05826119da565b9050919050565b611a15816119fa565b8114611a2057600080fd5b50565b600081359050611a3281611a0c565b92915050565b600060208284031215611a4e57611a4d6119d0565b5b6000611a5c84828501611a23565b91505092915050565b611a6e816119fa565b82525050565b6000602082019050611a896000830184611a65565b92915050565b600080fd5b600080fd5b600080fd5b60008083601f840112611ab457611ab3611a8f565b5b8235905067ffffffffffffffff811115611ad157611ad0611a94565b5b602083019150836001820283011115611aed57611aec611a99565b5b9250929050565b60008060208385031215611b0b57611b0a6119d0565b5b600083013567ffffffffffffffff811115611b2957611b286119d5565b5b611b3585828601611a9e565b92509250509250929050565b6000819050919050565b6000611b66611b61611b5c846119da565b611b41565b6119da565b9050919050565b6000611b7882611b4b565b9050919050565b6000611b8a82611b6d565b9050919050565b611b9a81611b7f565b82525050565b6000602082019050611bb56000830184611b91565b92915050565b600081519050919050565b600082825260208201905092915050565b60005b83811015611bf5578082015181840152602081019050611bda565b60008484015250505050565b6000601f19601f8301169050919050565b6000611c1d82611bbb565b611c278185611bc6565b9350611c37818560208601611bd7565b611c4081611c01565b840191505092915050565b60006020820190508181036000830152611c658184611c12565b905092915050565b6000819050919050565b611c8081611c6d565b8114611c8b57600080fd5b50565b600081359050611c9d81611c77565b92915050565b6000819050919050565b611cb681611ca3565b8114611cc157600080fd5b50565b600081359050611cd381611cad565b92915050565b60008060408385031215611cf057611cef6119d0565b5b6000611cfe85828601611c8e565b9250506020611d0f85828601611cc4565b9150509250929050565b6000819050919050565b611d2c81611d19565b8114611d3757600080fd5b50565b600081359050611d4981611d23565b92915050565b60007fffffffff0000000000000000000000000000000000000000000000000000000082169050919050565b611d8481611d4f565b8114611d8f57600080fd5b50565b600081359050611da181611d7b565b92915050565b60008060008060808587031215611dc157611dc06119d0565b5b6000611dcf87828801611c8e565b9450506020611de087828801611d3a565b9350506040611df187828801611d92565b9250506060611e0287828801611d3a565b91505092959194509250565b7f4d7573742062652070726f706f736564206f776e657200000000000000000000600082015250565b6000611e44601683611bc6565b9150611e4f82611e0e565b602082019050919050565b60006020820190508181036000830152611e7381611e37565b9050919050565b7f596f7520646f6e27742068617665207065726d697373696f6e2e000000000000600082015250565b6000611eb0601a83611bc6565b9150611ebb82611e7a565b602082019050919050565b60006020820190508181036000830152611edf81611ea3565b9050919050565b7f4e487b7100000000000000000000000000000000000000000000000000000000600052602260045260246000fd5b60006002820490506001821680611f2d57607f821691505b602082108103611f4057611f3f611ee6565b5b50919050565b7f4e487b7100000000000000000000000000000000000000000000000000000000600052601160045260246000fd5b6000611f8082611d19565b9150611f8b83611d19565b9250828202611f9981611d19565b91508282048414831517611fb057611faf611f46565b5b5092915050565b7f4e487b7100000000000000000000000000000000000000000000000000000000600052601260045260246000fd5b6000611ff182611d19565b9150611ffc83611d19565b92508261200c5761200b611fb7565b5b828204905092915050565b61202081611c6d565b82525050565b600060208201905061203b6000830184612017565b92915050565b60008151905061205081611d23565b92915050565b60006020828403121561206c5761206b6119d0565b5b600061207a84828501612041565b91505092915050565b61208c81611d19565b82525050565b60006040820190506120a76000830185611a65565b6120b46020830184612083565b9392505050565b60008115159050919050565b6120d0816120bb565b81146120db57600080fd5b50565b6000815190506120ed816120c7565b92915050565b600060208284031215612109576121086119d0565b5b6000612117848285016120de565b91505092915050565b7f556e61626c6520746f207472616e736665720000000000000000000000000000600082015250565b6000612156601283611bc6565b915061216182612120565b602082019050919050565b6000602082019050818103600083015261218581612149565b9050919050565b600082905092915050565b7f4e487b7100000000000000000000000000000000000000000000000000000000600052604160045260246000fd5b60008190508160005260206000209050919050565b60006020601f8301049050919050565b600082821b905092915050565b6000600883026122287fffffffffffffffffffffffffffffffffffffffffffffffffffffffffffffffff826121eb565b61223286836121eb565b95508019841693508086168417925050509392505050565b600061226561226061225b84611d19565b611b41565b611d19565b9050919050565b6000819050919050565b61227f8361224a565b61229361228b8261226c565b8484546121f8565b825550505050565b600090565b6122a861229b565b6122b3818484612276565b505050565b5b818110156122d7576122cc6000826122a0565b6001810190506122b9565b5050565b601f82111561231c576122ed816121c6565b6122f6846121db565b81016020851015612305578190505b612319612311856121db565b8301826122b8565b50505b505050565b600082821c905092915050565b600061233f60001984600802612321565b1980831691505092915050565b6000612358838361232e565b9150826002028217905092915050565b612372838361218c565b67ffffffffffffffff81111561238b5761238a612197565b5b6123958254611f15565b6123a08282856122db565b6000601f8311600181146123cf57600084156123bd578287013590505b6123c7858261234c565b86555061242f565b601f1984166123dd866121c6565b60005b82811015612405578489013582556001820191506020850194506020810190506123e0565b86831015612422578489013561241e601f89168261232e565b8355505b6001600288020188555050505b50505050505050565b7f536f75726365206d75737420626520746865206f7261636c65206f662074686560008201527f2072657175657374000000000000000000000000000000000000000000000000602082015250565b6000612494602883611bc6565b915061249f82612438565b604082019050919050565b600060208201905081810360008301526124c381612487565b9050919050565b6124d381611ca3565b82525050565b60006020820190506124ee60008301846124ca565b92915050565b60006040820190506125096000830185612017565b61251660208301846124ca565b9392505050565b600061252882611d19565b915061253383611d19565b925082820190508082111561254b5761254a611f46565b5b92915050565b61255a81611d4f565b82525050565b600081519050919050565b600082825260208201905092915050565b600061258782612560565b612591818561256b565b93506125a1818560208601611bd7565b6125aa81611c01565b840191505092915050565b6000610100820190506125cb600083018b611a65565b6125d8602083018a612083565b6125e56040830189612017565b6125f26060830188611a65565b6125ff6080830187612551565b61260c60a0830186612083565b61261960c0830185612083565b81810360e083015261262b818461257c565b90509998505050505050505050565b7f4f6e6c792063616c6c61626c65206279206f776e657200000000000000000000600082015250565b6000612670601683611bc6565b915061267b8261263a565b602082019050919050565b6000602082019050818103600083015261269f81612663565b9050919050565b60006080820190506126bb6000830187612017565b6126c86020830186612083565b6126d56040830185612551565b6126e26060830184612083565b95945050505050565b7f43616e6e6f74207472616e7366657220746f2073656c66000000000000000000600082015250565b6000612721601783611bc6565b915061272c826126eb565b602082019050919050565b6000602082019050818103600083015261275081612714565b9050919050565b600061276282611ca3565b915061276d83611ca3565b925082820390508181126000841216828213600085121516171561279457612793611f46565b5b92915050565b60006127a582611b6d565b9050919050565b60008160601b9050919050565b60006127c4826127ac565b9050919050565b60006127d6826127b9565b9050919050565b6127ee6127e98261279a565b6127cb565b82525050565b6000819050919050565b61280f61280a82611d19565b6127f4565b82525050565b600061282182856127dd565b60148201915061283182846127fe565b6020820191508190509392505050565b60006060820190506128566000830186611a65565b6128636020830185612083565b8181036040830152612875818461257c565b9050949350505050565b7f756e61626c6520746f207472616e73666572416e6443616c6c20746f206f726160008201527f636c650000000000000000000000000000000000000000000000000000000000602082015250565b60006128db602383611bc6565b91506128e68261287f565b604082019050919050565b6000602082019050818103600083015261290a816128ce565b9050919050565b600061291c82611d19565b915061292783611d19565b92508261293757612936611fb7565b5b828206905092915050565b600061294d82611d19565b915061295883611d19565b92508282039050818111156129705761296f611f46565b5b92915050565b600060208201905061298b6000830184612083565b92915050565b60008160011c9050919050565b6000808291508390505b60018511156129e8578086048111156129c4576129c3611f46565b5b60018516156129d35780820291505b80810290506129e185612991565b94506129a8565b94509492505050565b600082612a015760019050612abd565b81612a0f5760009050612abd565b8160018114612a255760028114612a2f57612a5e565b6001915050612abd565b60ff841115612a4157612a40611f46565b5b8360020a915084821115612a5857612a57611f46565b5b50612abd565b5060208310610133831016604e8410600b8410161715612a935782820a905083811115612a8e57612a8d611f46565b5b612abd565b612aa0848484600161299e565b92509050818404811115612ab757612ab6611f46565b5b81810290505b9392505050565b6000612acf82611d19565b9150612ada83611d19565b9250612b077fffffffffffffffffffffffffffffffffffffffffffffffffffffffffffffffff84846129f1565b90509291505056fea2646970667358221220fb9e52eae6f2d9e53e60ca4e0e711a4f75e47ba45dace8edf1bf613dc7f6f66464736f6c6343000818003368747470733a2f2f6170692e6f70656e2d6d6574656f2e636f6d2f76312f666f7265636173743f6c617469747564653d33302e35383333266c6f6e6769747564653d3131342e323636372663757272656e745f776561746865723d74727565",
  "linkReferences": {},
  "deployedLinkReferences": {}
}